:020000040800F2
:10000000D032002045030008A9520008893D0008AD
:10001000E94B0008811F0008C169000800000000CA
:10002000000000000000000000000000790200084D
:100030004920000800000000BD020008DD6500083E
:100040005F0300085F0300085F0300085F03000808
:100050005F0300085F0300085F0300085F030008F8
:100060005F0300085F0300085F0300085F030008E8
:100070005F0300085F0300085F0300085F030008D8
:100080005F0300085F0300085F0300085F030008C8
:100090005F0300085F0300085F0300085F030008B8
:1000A0005F0300085F0300085F0300085F030008A8
:1000B0007D6600085F0300085F0300085F03000817
:1000C0005F0300085F0300085F0300085F03000888
:1000D0005F0300085F0300085F0300085F03000878
:1000E0005F0300085F0300085F03000800F002F8E8
:1000F00000F0B2F80AA090E8000C82448344AAF110
:100100000107DA4501D100F0A7F8AFF2090EBAE80D
:100110000F0013F0010F18BFFB1A43F0010318473B
:10012000ECCF00000CD000000A444FF0000C10F897
:10013000013B13F0070408BF10F8014B1D1108BF65
:1001400010F8015B641E05D010F8016B641E01F805
:10015000016BF9D113F0080F1EBF10F8014BAD1C55
:100160000C1B09D16D1E58BF01F801CBFAD505E073
:1001700014F8016B01F8016B6D1EF9D59142D6D3CD
:10018000704700000023002400250026103A28BFF5
:1001900078C1FBD8520728BF30C148BF0B607047F9
:1001A0006E2900F0D782702900F0218466290AF0B8
:1001B000B88465290AF0B58467290AF0B2846129F8
:1001C0000AF0B18403681B0A28BF41F08001692945
:1001D00000F08482642900F08182752900F07E821B
:1001E0006F2900F0AE83782900F0ED83E92900F053
:1001F0004983E42900F04683F52900F04383EF2981
:1002000000F0AB83F82900F0EC830368DB0928BF1A
:1002100041F08001632901F04781732901F04C818D
:10022000E32901F05781F32901F05C810020704738
:100230001FB500F0D6F801F0ABF904000020002152
:1002400009F072FC401C60600020002109F056FC9F
:10025000E0601FBD10B510BD01F06CF91146FFF74D
:10026000E7FF07F035F901F049FA03B4FFF7F2FFB1
:1002700003BC01F04DFA0000224B19680868B0E891
:10028000F00F80F30988BFF36F8F4FF0000080F309
:1002900011884EF00D0E70470000000006480068FF
:1002A000006880F3088862B661B6BFF34F8FBFF372
:1002B0006F8F00DF00BF00BF08ED00E0EFF30980A3
:1002C000BFF36F8F0F4B1A6820E9F00F106008B56D
:1002D0004FF0500080F31188BFF34F8FBFF36F8F43
:1002E00008F034FC4FF0000080F31188BDE80840AE
:1002F00019680868B0E8F00F80F30988BFF36F8FC2
:10030000704700BF00010020EFF305807047000038
:100310000B49D1F800C04A685CF8043B10681844E7
:1003200042F8040B8C4528BFA1F1DC0C8A4228BF9F
:10033000A1F1DC02C1F800C04A6020F00040704723
:10034000642C00200948804709480047FEE7FEE783
:10035000FEE7FEE7FEE7FEE7FEE7FEE7FEE7FEE775
:1003600004480549054A064B704700007B660008B3
:10037000ED000008D02C0020D0320020D02E00202C
:10038000D02E00207CB51D4616460C00009001D0F2
:100390002044401E074B7B442A4669460190304664
:1003A00000F0F1F905461CB10020694600F0FEF9A5
:1003B00028467CBD1D0400000B4910B5A1F17C024C
:1003C0000A4CC2E93712372106E000EB104342F82D
:1003D0002130074B00FB03400B1EA1F10101F4DCAF
:1003E00010BD0120E8E70000042C0020E119D666CA
:1003F000CD0D010040EA0103024630B59B0710D144
:100400004FF0013400E008C208C91D1B9D4315EAE6
:10041000C41FF8D013F0FF0102F8011B0DD01B0A16
:10042000F8E711F8013B002B02F8013B05D011F869
:10043000013B002B02F8013BF3D130BD032A40F20F
:10044000308010F0030C00F0158011F8013BBCF176
:10045000020F624498BF11F801CB00F8013B38BF8E
:1004600011F8013BA2F1040298BF00F801CB38BF9C
:1004700000F8013B11F0030300F08883083AC0F054
:10048000088051F8043B083A51F804CBA0E8081062
:10049000F5E7121D5CBF51F8043B40F8043BAFF395
:1004A0000080D20724BF11F8013B11F801CB48BFEF
:1004B00011F8012B24BF00F8013B00F801CB48BF25
:1004C00000F8012B704702F0FF0343EA032242EADF
:1004D000024200F08FBB4FF0000200B51346944675
:1004E0009646203922BFA0E80C50A0E80C50B1F18C
:1004F0002001BFF4F7AF090728BFA0E80C5048BFA0
:100500000CC05DF804EB890028BF40F8042B08BF3D
:10051000704748BF20F8022B11F0804F18BF00F839
:10052000012B704710B5044610F0030F08BF11F0FF
:10053000030F40F015804FF0013E121FC0F20E80F5
:1005400051F8043BA3EB0E0C2CEA030C1CEACE1C66
:1005500008BF40F8043BF0D0A1F1040102F104020D
:10056000521E08DB11F8013B002B00F8013BF7D1CC
:10057000114600F03DFB204610BD00004FF0013C4D
:1005800050F8042B51F8043B9A4221D1A2EB0C0302
:10059000934313EACC1317D150F8042B51F8043BC2
:1005A0009A4215D1A2EB0C03934313EACC130BD15F
:1005B00050F8042B51F8043B9A4209D1A2EB0C03EA
:1005C000934313EACC13DBD04FF00000704700BF19
:1005D000D01A01BAB1FA81F101F0180122FA01F042
:1005E000CB40C1F12001DBB2C0B2C01A2CFA01F33A
:1005F000D11A914311EAC311E6D170477047704791
:10060000704710B500F016FB006810BD10B5044629
:1006100000F010FB046010BD70B5044685690068E9
:10062000C10601D5302600E02026C00707D070BDE6
:10063000D4E9012130469047206A401C20626D1E9B
:10064000F6D570BD70B5044685690078C00707D13E
:1006500070BDD4E9012120209047206A401C20620F
:100660006D1EF6D570BD09684A0501D540B27047C8
:10067000C905FCD500B2704709684A0501D5C0B26A
:100680007047C905FCD580B2704770B50C46054669
:10069000012A05D02878800600D5EA69002302E007
:1006A000012305E05B1C934202D2E05C0028F9D1F3
:1006B000A869E618C01AA861286A18442862284662
:1006C000FFF7AAFF04E0D5E9012114F8010B9047D8
:1006D000B442F8D32846FFF7B5FF70BD2DE9F041CD
:1006E0000646002410687529314616A510D0FFF77C
:1006F000BAFF002802DA404213A507E031688A07F2
:1007000001D512A502E0490704D511A5012401E095
:10071000FFF7B2FF00210A2206F1240709E0B0FB2F
:10072000F2FCB0FBF2F302FB1C00303078541846A8
:10073000491C0028F3D123462A463046BDE8F04143
:1007400000F0C1BA000000002D0000002B000000E6
:100750002000000011680268006A530501D5087086
:100760000AE0D30501D5088006E0130603D5C217B9
:10077000C1E9000200E008600120704701694A1CDD
:1007800002610878704700B58FB0CDE901310021D2
:10079000059105497944CDE903101146684600F0FA
:1007A00031F90FB000BD0000E5FFFFFF0A6802F855
:1007B000010B0A607047D1E900239A4202D2531C10
:1007C0000B601070704700002DE9FF5F15468A46E8
:1007D0000446DFF8AC80F8440027D8E900103E4614
:1007E000CDE9001010E03AF816106A4602A800F0B1
:1007F0007DFE411C07D02178890603D5E2693918AE
:1008000091420DD80744761C2078800602D5E06915
:10081000B84205DDAE42E6DB3AF816000028E2D128
:10082000A069C01BA0612046FFF7F6FED8E90010C2
:10083000CDE90010002017E03AF818106A4602A827
:1008400000F054FEB0F1FF3F81460BD000250DF1C2
:10085000080B05E0D4E901211BF8050090476D1C49
:100860004D45F7D308F10100B0428046E4DB206A31
:10087000384420622046FFF7E5FEBDE8FF9F0000F8
:10088000DEC600002DE9F0418046D21D22F00702AD
:100890000025D2E90002F52915A614D0011E72F137
:1008A000000106DA0023D0EB030063EB020211A67D
:1008B00008E0D8F800108B0701D50FA602E0490721
:1008C00001D50EA601251146002408F1240704E0F5
:1008D00000F0B4F930323A55641C50EA0102F7D105
:1008E0002B46324621464046BDE8F04100F0EBB9C8
:1008F000000000002D0000002B0000002000000080
:1009000030B4002100F1240408E002F00705D20809
:10091000303542EA4372DB086554491C52EA03054C
:10092000F3D10468002310A2250707D5A40600D43C
:1009300021B1C46901230DA2641EC46130BC00F062
:10094000C2B910B5044621461068FFF795FE02466D
:100950002046BDE810400023D2E7D21D22F0070157
:10096000D1E90023CCE700000000000030000000C7
:10097000F0B40D460188090502D5214C7C4402E003
:100980001F4C7C440E34002100F1240608E002F0E4
:100990000F071209E75D42EA03721B097754491CED
:1009A00052EA0307F3D102780023120704D5702D11
:1009B00006D009B1022311342246F0BC00F083B9FD
:1009C00001231034F8E770B504460D46214610683F
:1009D000FFF752FE024629462046BDE8704000233C
:1009E000C6E7D21D22F00703D3E90023C0E703685E
:1009F000126843F0200303600823C3610023B7E7B4
:100A000040C500002DE9F05F894604464FF0000A1A
:100A1000DFF874B1FB44C0F820A02046E1688847A5
:100A2000002874D0252806D0D4E901219047206AF7
:100A3000401C2062F1E700265F462046E1688847B7
:100A40002028054607DB312D05D2781910F8200C37
:100A500008B10643F1E7B00701D526F00406C4F853
:100A60001CA00027C4F818A02A2D09D0284606F09B
:100A700006FB38B304EB8708303DC8F8185019E07E
:100A800059F8041B204604EB87029161E16888470E
:100A9000012F054618D1E069002820DA26F020064B
:100AA0001DE0D8F8180000EB800005EB400030385E
:100AB000C8F818002046E1688847054606F0DFFAC6
:100AC0000028EED1012F0AD02E2D08D12046E16852
:100AD00088477F1C0546022F46F02006C4DBA0692C
:100AE000002803DA404246F00106A061F00701D079
:100AF00026F010066C2D0BD0682D09D04C2D39D066
:100B00006A2D35D0742D35D07A2D33D016E038E0EB
:100B1000E1682F4620468847B842054609D16C2F28
:100B200026D04FF48060E16806432046884705469A
:100B300004E06C2F1AD04FF4807006430DB3A5F17A
:100B40004100192802D8203546F400664A46294655
:100B5000204626604E46FFF723FB80B101280BD0CC
:100B6000F61D26F0070000F1080956E74020E4E7EB
:100B70008020D8E70020D6E706F104094DE7284693
:100B800052E7206ABDE8F09FD0C4000010B5203ABB
:100B9000C0F00B80B1E81850203AA0E81850B1E836
:100BA0001850A0E81850BFF4F5AF5FEA027C24BFEC
:100BB000B1E81850A0E8185044BF18C918C0BDE8E3
:100BC00010405FEA827C24BF51F8043B40F8043BAC
:100BD00008BF7047D20728BF31F8023B48BF11F861
:100BE000012B28BF20F8023B48BF00F8012B7047BB
:100BF0004FF000020429C0F0128010F0030C3FF403
:100C00006CACCCF1040CBCF1020F18BF00F8012B46
:100C1000A8BF20F8022BA1EB0C01FFF75EBC5FEA36
:100C2000C17C24BF00F8012B00F8012B48BF00F85D
:100C3000012B7047004870476C2C002030B5B0F194
:100C40000A024FEA900E71F100034EEA817EB0EB8A
:100C50000E0061EB91014FEA101E4EEA017E10EB8F
:100C60000E0041EB11114FEA102E4EEA016E10EB0F
:100C70000E0041EB11214FEA104E4EEA014E10EBEF
:100C80000E0041EB1141401841F100014FEAD00044
:100C900040EA41704FEAD10110EB80054FEA810430
:100CA00044EA907444EB01046D1944EB0404521BB4
:100CB000A3414FF0000348BF0A3200D530BD401CAD
:100CC00041F1000130BD2DE9F0470D4699469246AD
:100CD000044600F124080168880604D5E06921F083
:100CE0001001216000E00120A84201DD471B00E067
:100CF0000027A1697A1902EB0900081AA06120787F
:100D0000C00602D42046FFF787FC002608E0D4E99D
:100D100001211AF806009047206A401C761C2062C8
:100D20004E45F4DB2078C0060AD52046FFF774FC58
:100D300006E0D4E9012130209047206A401C20625F
:100D4000381EA7F10107F4DC07E0D4E9012118F807
:100D500005009047206A401C2062281EA5F101056D
:100D6000F3DC2046FFF76EFC2078000602D5022057
:100D7000BDE8F0870120FBE770472DE9FF4F0C46E7
:100D80001E464FF0FF378BB0D2E90001DDF86080DE
:100D90000A908A46C1F30A5505B93D460021084626
:100DA0004FF00000BAF1000F00F4400005DA00EB4C
:100DB00080004FF4400101EA50004FEA9059B9F128
:100DC000010F00DDB9460A9850EA4A000ED044F6F9
:100DD0001050A5F2FF3545432F14B8F1000F1ED077
:100DE0007542291E1EDDC9F100021CE0B8F1010F99
:100DF0004FF0000001D0302103E0F24305E0215420
:100E0000401CB042FBDB30460022002121540B99EC
:100E1000C1F80880C1E900200FB0BDE8F08FBD1B0C
:100E20006D1CDEE74A4600DA694206A800F0F4FBD2
:100E300006AB93E8070003AB83E8070050460A9926
:100E400000F06CFC8DE80700A0F500501F38009002
:100E50000398002D0ADD42F21F014A460844002390
:100E600003A90390684600F0D5FE09E0A0F5005004
:100E70004A461F38002303A90390684600F0DFFEAE
:100E80008DE807000004000C03D04FF0FF3041084C
:100E900000E01046B8F1000F03D000220092154682
:100EA0001EE0751E05D4FFF7C9FE303262556D1E77
:100EB000F9D5B3460122084302D000227F1C04E08A
:100EC0002078302801D100227F1E002A099784D083
:100ED0001DE0112D07DAFFF7B1FE303262556D1CAF
:100EE00050EA0102F5D1084302D00098C8B10EE0E3
:100EF0000021681E05E0235C625C63542254401E9E
:100F0000491C8142F7DBAB46A81B401E099000201C
:100F100004F80B000B98099AC0F80880C0E9002B70
:100F20007AE711264FF0000857E72DE9F04F884681
:100F30000446D21D22F0070191B0D1E90001CDE9AC
:100F40000A0105F03EFD02460B98C00F01D02D208E
:100F500007E02068810701D52B2002E0202101EA6B
:100F6000C000032A099001D0072A05DB0346414649
:100F7000204600F011FB0BE12078800601D5E069E6
:100F800000E00620B8F1650F814606D0B8F1660F83
:100F900018D0B8F1670F70D131E00020B9F1110F0E
:100FA000009001DB112301E009F101030AAA01A964
:100FB0000CA8FFF7E2FEDDE90C70002609F101053F
:100FC000834647E001204B4600904FF000470AAAB5
:100FD00001A90CA8FFF7D1FEDDE90DB00C995D4623
:100FE000002610B909F101000D18B9EB050003D472
:100FF000C0F1FF3609F10105A5EB09002BE0B9F1BD
:10100000010F01DA4FF001090020B9F1110F009032
:10101000484601DD112300E003460AAA01A90CA8F5
:10102000FFF7ABFEDDE90C704D46002683462078C5
:1010300000070AD4AB4500DA5D4601A8012D04DDA6
:10104000411911F8011C302907D04F4502DA17F178
:10105000040F04DA012082460FE06D1EEEE7002F38
:1010600002DCED1B3E4403E0781CA84200DD7D1C41
:10107000B81B00F1010A4FF000472078000703D4A5
:10108000AA4501DB4FF0FF3A0021B7F1004F0DF107
:1010900043088DF8431024D002202B23002F01DABF
:1010A0007F422D230A21021EA0F1010000DC5FB166
:1010B00097FBF1FC97FBF1F201FB1C7C17460CF14E
:1010C000300C08F801CDEEE7A8F10100037021888B
:1010D000090501D5452100E06521A0F1010800F8CE
:1010E000011C09980FA9A1EB0807FF1D00B1012001
:1010F000411901EBEA70A1693844081A401EA06149
:101100002078C00602D42046FFF786FA099828B155
:10111000D4E901219047206A401C20622078C00653
:1011200022D52046FFF778FA1EE0002E04DBB345F7
:1011300002DD01A8805D00E03020D4E90121904764
:10114000206A401C2062761CAAF101005FEA000AB6
:101150000AD100F01DFAC0680168405CD4E90121A1
:101160009047206A401C2062281EA5F10105DCDCA6
:1011700007E0D4E9012118F8010B9047206A401CD0
:101180002062381EA7F10107F3DC2046FFF75AFA68
:10119000032011B041E600002DE9F04F04460D4652
:1011A000D21D22F0070089B0D0E9009748463946A1
:1011B00005F007FC0246F80F01D02D2307E0206858
:1011C000810701D52B2302E0202101EAC0038DF81D
:1011D00020300BB1012000E00020032A824601D01C
:1011E000072A04DB2946204600F0D6F93FE12078A3
:1011F000800601D40D2500E0E569C7F30A560D2DE0
:1012000049DA00214FEA175B08464FF00000002F33
:1012100000F4400007DA00EB80004FF4400100EBDF
:10122000D07001EA60008115012901DD4FF0FF3126
:1012300000224FEA850CBCF1180F06D31346ACF11F
:1012400018004FF08052C24003E04FF4801323FA9D
:101250000CF30CF10C0CBCF1200F04D3ACF1200CFE
:1012600009FA0CF001E007FA0CF000294FF00048F1
:1012700001DD18B90FE00ED140450CD319EB02097E
:101280005F4121B9404502D19F4329EA0209BBEBE6
:10129000175F00D0761C2088000502D57B48784473
:1012A00002E07A487844193808AA302302F80A3054
:1012B000037C0AF10101002E0AF1020A53546A4626
:1012C00002DC4FF0300101E04FF031014FF0010836
:1012D0008DF8001002D0A6F2FF3603E059EA47016C
:1012E00000D06B4E002D02DC2178090704D54FF0A9
:1012F00002082E218DF80110C44600210BE0C7F32F
:1013000003433F01C35C491C6D1E02F808300529E8
:1013100008F1010801DA002DF1DC00210CE000EBFE
:101320001973491C1B786D1E082902F808304FEA12
:10133000091908F1010801DA002DF0DC21688B069B
:1013400002D516E0A8F10108E04505DD02EB08032F
:1013500013F8013C302BF5D0B8F1000F09DD02EB9A
:10136000080313F8013C2E2B03D1090701D4A8F17F
:101370000108002D05DD3E2102F808106D1E08F160
:101380000108407C002E02F8080008F1010804DA88
:101390002D20764202F8080002E02B2002F8080017
:1013A0000A214FF47A70864208F101080BDB96FBA4
:1013B000F0F3303302F8083096FBF0F308F101083F
:1013C00000FB136601E0642E0CDB642096FBF0F357
:1013D000303302F8083096FBF0F308F1010800FB07
:1013E000136601E00A2E06DB96FBF1F0303002F8BE
:1013F000080008F1010896FBF1F001FB10603030A5
:1014000002F80800A16908F1010808EB050202EBE7
:101410000A00081AA0612078C00602D42046FFF70F
:10142000FBF8216A08AE01EB0A00206204E0D4E96F
:10143000012116F8010B9047BAF1010AF7D2207882
:10144000C00602D52046FFF7E7F86E4609E016F819
:10145000010B3E280FD0D4E901219047206A401C9F
:101460002062B8F10108F2D22046FFF7EBF809B08C
:101470000320BDE8F08F206A2844206203E0D4E90D
:101480000121302090476D1EEBD3F8E791BD00009D
:1014900002FCFFFF10B5436913B1AFF3008001E018
:1014A000FFF7F3F8012010BD127800F124010A7053
:1014B00000224A700122EDE711684FF0FF32E9E7A0
:1014C00010B5436913B1AFF3008001E0FFF77CF979
:1014D000012010BD128800F1240182840022C28400
:1014E0000122EDE711684FF0FF32E9E770B51646CB
:1014F0000C46054600F044F8036893F80101012802
:1015000006D0FF2C0FD8185D68B101202C7070BD7B
:10151000D3F807013246214603F207130344284655
:10152000BDE8704018474FF0FF3070BD004870476D
:101530006C2C00207546FFF7F9FFAE4605006946A2
:10154000534620F00700854618B020B5FEF708FF87
:10155000BDE820404FF000064FF000074FF00008B4
:101560004FF0000B21F00701AC46ACE8C009ACE835
:10157000C009ACE8C009ACE8C0098D46704700005E
:1015800010B500F005F8001D10BD00BF9D850000DE
:10159000004870478C2C00202DE9F0411F4604467E
:1015A00003260168072A01F4006004DB08B116A5D0
:1015B00005E016A503E008B115A500E015A521F08A
:1015C00010002060A069C01EA0610FB1401EA06184
:1015D0002046FFF721F84FB1D4E901213846904762
:1015E000206A401C2062C01C206206E0206AFAE7E4
:1015F000D4E9012115F8010B9047761EF8D2204658
:10160000FFF720F8BDE8F0814E414E006E616E009C
:10161000494E4600696E66002DE9F0478146164640
:101620008AB0354878440DC88DE80D0032487844BA
:10163000801C03AC0DC884E80D0041F69B300844C3
:10164000372190FBF1F290FBF1F5A5F1800501FB4C
:1016500012041B3C02D56442012000E00020DFF8A8
:1016600098A080460027FA44AAF1BE0A0EE0E007DF
:101670000AD03246684607EB470101230AEB810195
:1016800000F0DDFA8DE8070064107F1C002CEED11D
:10169000194F7F44AE3F19E0E80715D007EB04105F
:1016A0000DF1180A90E80E008AE80E00C068F042BA
:1016B00001D1981908903246012306A903A800F029
:1016C000BEFA03AB83E807006D10641C002DE3D164
:1016D0004FF0010332466946B8F1000F03A802D06B
:1016E00000F098FA01E000F0AAFAC9E90001C9F88F
:1016F00008200AB0BDE8F0879CBA000010B5044687
:10170000AFF300802046BDE81040FEF7AEBD704745
:1017100001491820ABBEFEE7260002005FEA400C3C
:1017200008BF91F0000F4FEA8C234FEAC12243EA31
:1017300051514FEA1C5018BF00F5F0404FEA3000FD
:1017400018BF41F000415FEA6C5C00F02980BCF1F9
:10175000FF3F08BF40F080407047130C06BF1204E3
:101760004FF0100C4FF0000C130E04BF12020CF1DE
:10177000080C130F04BF12010CF1040C930F04BFEB
:1017800092000CF1020CD30F04BF52000CF1010CBB
:1017900011464FF00002A0F11F00A0EB0C007047B3
:1017A00011F0004F08BF704731F000413FF4D5AF52
:1017B0000B0C06BF09044FF0100C4FF0000C0B0E81
:1017C00004BF09020CF1080C0B0F04BF09010CF156
:1017D000040C8B0F04BF89000CF1020CCB0F04BF6B
:1017E00049000CF1010CCCF12003A0EB0C0022FA13
:1017F00003F302FA0CF241EA030100F10100704721
:1018000020F07F4C80EA030023F07F47ACEB070316
:1018100003F57C5300F0004003F1FF032DE98049FC
:101820004FEA154B09B44FEA144325EA0B4E24EA5C
:1018300003480FF2042606EB132749083E785FEAB7
:10184000320203FB0667C7F5000707FB06F64FEAFF
:1018500054374FEAD64606F1020607FB066CCCF178
:10186000005C4FEA1C472CEA074C07FB06F40CFB14
:1018700006F504EB15464FEA961634BF00204FF0EC
:1018800000404FEAD13706FB07FC4FEA1C4C0CFB2B
:101890000BF7D21B03FB0CF761EB07010CFB0EF7F8
:1018A000B0EB074072EB17420CFB08F734BFA2EB1A
:1018B0000742B2EB074261EB17414FEA0C444FEA93
:1018C000910706FB07FC4FEA1C4C0CFB0BF7B0EB37
:1018D000C74072EB573203FB0CF734BFA2EBC74291
:1018E000B2EBC74261EB57310CFB0EF7B0EBC70010
:1018F00072EB57720CFB08F734BFA2EBC702B2EBD6
:10190000C70261EB5771039F4FEA816141EA92116F
:1019100004EBCC044FEAD1374FEA826206FB07FCA6
:1019200042EA90124FEA80604FEA1C4C0CFB0BF726
:10193000D21B03FB0CF761EB07010CFB0EF7B0EBBE
:10194000074072EB17420CFB08F734BFA2EB0742CB
:10195000B2EB074261EB17414FEA8C554FEA910712
:1019600004EB9C2406FB07FC4FEA1C4C0CFB0BF71A
:10197000B0EBC74072EB573203FB0CF734BFA2EB5E
:10198000C742B2EBC74261EB57310CFB0EF7B0EB2D
:10199000C70072EB57720CFB08F734BFA2EBC7020B
:1019A000B2EBC70261EB577115EB4C254FEA816131
:1019B00041EA92114FEA82624FEAD13742EA90122D
:1019C00006FB07FC44F100044FEA80604FEA1C4C20
:1019D0000CFB0BF7D21B03FB0CF761EB07010CFBB5
:1019E0000EF7B0EB074072EB17420CFB08F734BF61
:1019F000A2EB0742B2EB074261EB174115EB1C1556
:101A00004FEA813141EA92414FEA823242EA904202
:101A10004FEA80304FEA0C7644F1000448EA034371
:101A20004EEA0B484FF0000EB2EB080C71EB0307C7
:101A300024BF624639464EEB0E0E4FF0000B0018E5
:101A4000524149414BEB0B0BB2EB080C71EB030716
:101A50007BF1000B24BF624639464EEB0E0E4FF071
:101A6000000B0018524149414BEB0B0BB2EB080C39
:101A700071EB03077BF1000B24BF624639464EEB46
:101A80000E0E51EA020718BF46F0010616EB0E765D
:101A900055F1000254F1000103D5BDE88901BDE80C
:101AA0000088BDE88901BDE80048B619524141EB04
:101AB0000101A3F10103704780807F7E7D7C7B7AEA
:101AC0007978777676757473727171706F6E6E6DEA
:101AD0006C6C6B6A6A696868676666656464636390
:101AE00062616160605F5F5E5E5D5D5C5C5B5B5A16
:101AF0005A59595858575756565555555454535383
:101B000052525251515050504F4F4F4E4E4D4D4DDD
:101B10004C4C4C4B4B4B4A4A4A4949494848484728
:101B20004747474646464545454444444443434366
:101B30004342424242414141002B9C4630D477000F
:101B40002BD01CB54FEA370703B44FF010004FF00D
:101B50001001BAF1000F06D0BCF1000FDCBF40F05D
:101B6000080040F008014FF000000FBCBDE8104035
:101B70000BF1010BBBF1010F08BF5FEA170722BF92
:101B800012F1010211F101014FF0004143F1000394
:101B900000F0004043EA00007047F9D35708D0E74F
:101BA00046EA064613F1400F4FEA16461FDD13F1D1
:101BB000200FDFBF16430A46002120335B42BED010
:101BC000C3F1200746EA064602FA07F74FEA16462F
:101BD00046EA0706C3F1200722FA03F201FA07F7E3
:101BE00021FA03F14FF0000342EA0702A7E746EAB1
:101BF000020646EA06464FEA164646EA0106BCBF1A
:101C000046EA0646360C4FF000034FF000024FF054
:101C1000000194E72DE9804C9A46934670B491E810
:101C2000380007C831EA400C48BF34EA430C03D5FA
:101C3000FFF7E6FDFFF780FFF0BCBDE8008C2DE963
:101C4000804C9A46934670B491E8380007C810F06B
:101C5000804F08BF13F0804F03D100F005F8FFF765
:101C60006BFFF0BCBDE8008C20F07F4780EA0300EA
:101C700023F07F4C07EB0C03A3F57C5300F00040EE
:101C8000A3F1FE0392F0000F00F0B38095F0000F77
:101C900000F077802DE901494FEA11404FEA1446E0
:101CA00021EA004800FB06FC24EA064708FB06F68A
:101CB00007FB08F800FB07F718EB06484CEB164C3F
:101CC0004FEA124B18EB07484FEA15464CEB17400A
:101CD00022EA0B4E0BFB06FC25EA06470EFB06F636
:101CE00007FB0EFE0BFB07F71EEB064E4CEB164CEC
:101CF0004FF000061EEB074E4CEB174B18EB0B0892
:101D000040F1000018EB0E0B58EB000840F100000A
:101D10008F1A4FF000013CBFC943661B14BFB5EBDF
:101D2000040C00213CBFC943F61B4FEA17444EEA9E
:101D30008E0E27EA04454FEA1C4704FB07622CEA93
:101D4000074C05FB07F70CFB05F604FB0CFC16EB38
:101D5000074642EB174216EB0C4642EB1C421BEBCC
:101D6000060658EB0202414146EA9E0601D5BDE84F
:101D70000189B619524141EB0101A3F10103BDE80C
:101D800001894FEA14454FEA114724EA054621EA42
:101D9000074C05FB07F406FB07F70CFB06F105FBF8
:101DA0000CFC11EB074144EB17444FEA124711EBCF
:101DB0000C4144EB1C4422EA074C05FB07F206FBEE
:101DC00007F70CFB06F605FB0CFC16EB074642EB8F
:101DD000174216EB0C4642EB1C456A1854F1000101
:101DE00048BF7047B619524141EB0101A3F101030D
:101DF000704795F0000F37D04FEA11424FEA144771
:101E000021EA024624EA074C02FB07F106FB07F72A
:101E10000CFB06F402FB0CFC14EB074441EB1741EE
:101E20004FEA154714EB0C4441EB1C4125EA074CE3
:101E300002FB07F506FB07F70CFB06F602FB0CFCA2
:101E400016EB074645EB174516EB0C4645EB1C42D7
:101E5000121951F1000148BF7047B619524141EBC8
:101E60000101A3F1010370474FEA14454FEA1147FE
:101E700024EA054621EA074C05FB07F106FB07F7B4
:101E80000CFB06F24FF0000605FB0CFC12EB0742C0
:101E900041EB174112EB0C4251EB1C4148BF70471C
:101EA000921841EB0101A3F10103704770B504469C
:101EB00000688168C943C90717D1816821F0010111
:101EC000816000F0BFFC05460AE000BF00F0BAFCEC
:101ED000401B022804D920688068C043C00706D090
:101EE00020688068C043C007F0D0002070BDA06AA1
:101EF00040F01000A062E06A40F00100E0620120C2
:101F000070BD0000F8B500260446009600688168A0
:101F1000C943C9072DD0816841F00101816016488D
:101F200016490068B0FBF1F000E0401E0090002868
:101F3000FBD100F087FC054616E000BF00F082FCF4
:101F4000401B022810D920688068C043C0070BD00E
:101F5000A06A40F01000A062E06A40F00100E06278
:101F600084F824600120F8BD20688068C043C00761
:101F7000E4D10020F8BD0000FC00002040420F002A
:101F8000FEE7000070B5164C214660890D6C18B153
:101F9000401E6081A56270BD2846A16A08F04CFD14
:101FA000104920F00040884216DD0F4925F000401E
:101FB000884211DA0D4900200870AF2003F0F4FDCB
:101FC0000B4D286805F0CDFD42F21071286805F030
:101FD000AFFD4FF4C8706081206CA06270BD00003E
:101FE000580000200000C8410000A041C0000020AF
:101FF000DC000020134810B54179491CCCB2447173
:10200000418B491C8BB24383C179491CCAB2002160
:10201000C2710A2C03D34171046D641C0465FF2B4B
:1020200000D94183902A00D3C1718278012A07D157
:10203000828B521C92B28283642A01D38183817085
:1020400010BD0000580000207047000070B5114C12
:102050004FF0FF352946206805F0A8FB03F026F96C
:1020600004F018F904F0DEF803F04EFF03F0CCFFA3
:1020700003F086FD206805F0F6FB0749081F05F010
:10208000F9F9012803D0142005F0C2FAE2E7002094
:1020900070BD0000C8000020B000002004480021EE
:1020A000016541838171C171817081837047000036
:1020B0005800002072B6FEE770B5274D274C284E19
:1020C00002F0B6F92870012806D002280BD00328A8
:1020D00011D0042815D019E06068401E6060002807
:1020E00014DC022005E06068401C606003280DDB02
:1020F000012060600AE003F0D9F803F041FD606858
:1021000070BD01228021174800F097FB4FF0FF318E
:10211000306805F04BFB6068012802D0022811D11D
:1021200006E003F01FFF102318223021002005E0F5
:1021300003F018FF102318223021602003F0C4FBA5
:1021400003F01EFD306805F08EFB0A2005F060FAF2
:102150000A2005F05DFAB3E70800002030000020F7
:10216000C8000020000C014008B5084810230021D9
:1021700000901A46084603F013FC01B00823102112
:1021800003A200205DF804EB03F08CBC06C6000837
:10219000476F6F676C652044696E6F001EB508A4B9
:1021A00002291CCC8DE81C0004D00DEB010010F8B6
:1021B000010C1EBD800701D01C201EBD1D201EBDB0
:1021C0001F1C1F1E1F1E1F1F1E1F1E1FF8B50024D1
:1021D000009490F824202546012A12D0012280F88C
:1021E00024204A681F23072A0DD20668776B521EE7
:1021F00002EB820293409F430B6893401F43776337
:1022000019E00220F8BD06680D2A0AD2376BD21FEA
:1022100002EB820293409F430B6893401F43376356
:1022200009E0F76A0D3A02EB820293409F430B6884
:1022300093401F43F7620A68072306680A2A0AD3F5
:10224000F7680A3A02EB420293409F438B6893403F
:102250001F43F76008E0376902EB420293409F4357
:102260008B6893401F4337610A68102A01D0112AF6
:1022700020D1124B02689A4217D193681B0219D4DD
:10228000936843F4000393600968102912D10C4944
:102290000C4A0968B1FBF2F101EB8101490000E051
:1022A000491E00910029FBD104E0816A41F0200120
:1022B0008162012480F824502046F8BD00240140AA
:1022C000FC00002040420F000068C06C7047000016
:1022D0002DE9F0414FF0000704003D467ED0A06A92
:1022E000002628B9E66284F82460204600F07EF8D3
:1022F0002046FFF7DBFDA16AC90600D420B1A06A21
:1023000040F01000A06269E0A16A21F4885141F018
:102310000201A1626268E169237B0A4347EA430143
:102320000A43A1684FF48077B94209D0012907D048
:102330005FF0000194F814C0BCF1010F02D00AE074
:102340003946F7E7F3B1A36A43F02003A362E36AD7
:1023500043F00103E3622368D3F804C02CF4694C12
:102360004CEA010CC3F804C021688B68DFF870C028
:1023700003EA0C0313438B60A168B9420BD0012917
:1023800009D00CE0DFF85CC0A3690CEB43330B43CE
:1023900043F40061DFE7218A0D05A5F5801521686A
:1023A000CB6A23F470032B43CB62216889680E4B00
:1023B0001940914208D1E662A16A21F0020141F080
:1023C0000101A162BDE8F081A06A20F0020040F0A6
:1023D0001000A062E06A40F00100E0620120F1E735
:1023E000FDF7E1FF00E0FFFFFE0E1FFF00B585B027
:1023F0000021009101910291039100680E498842E9
:1024000018D10E48816941F400718161816901F43C
:1024100000710491816941F004018161806969461C
:1024200000F0040004900120009003200190044873
:1024300000F00EF905B000BD00240140001002407C
:102440000008014070B5044690F8240001280DD022
:10245000012084F824002046FFF754FD02004FF0CD
:10246000000005D084F82400104670BD022070BD25
:10247000A16A40F20123994341F48071A1621F4D8A
:1024800023681F49AB4218D10E6816F4702F14D080
:10249000A66A46F48016A6620E68760505D5A66A79
:1024A00026F4005646F48056A662A66AF6040AD5BB
:1024B000E66A26F00606E66206E0A66A26F48016BC
:1024C000A6625E68E9E7E06284F824006FF002002B
:1024D000186020688368C3F34243072B05D1A842E4
:1024E00008D1096811F4702F04D0816841F480117B
:1024F0008160B9E7816841F4A001F9E70028014053
:102500000424014010B5044690F82400012807D0A7
:10251000012084F824002046FFF7C8FC10B107E032
:10252000022010BDA16A21F4885141F00101A1628D
:10253000002184F8241010BD2DE9F04300233E4F04
:102540000F2573E001229A400A406DD023F0030466
:10255000E619D6F808809C074FEA147C05FA0CF9B6
:1025600009EA0804DFF8D480404502D14FF00008A2
:1025700016E0DFF8CC80404502D14FF001080FE0B3
:10258000DFF8C080404502D14FF0020808E0DFF8D4
:10259000B880404502D14FF0030801E04FF0040835
:1025A00008FA0CF8A04522D1284CD4F800C02CEA37
:1025B000020CC4F800C0241DD4F800C02CEA020CA0
:1025C000C4F800C0214C0C34D4F800C02CEA020C32
:1025D000C4F800C0241FD4F800C02CEA020CC4F8D0
:1025E00000C0D6F808C02CEA090CC6F808C0FF2ABB
:1025F00001D8064601E000F104064FEA830401D940
:10260000A4F12004D6F800C005FA04F82CEA080C5E
:102610004FF0040808FA04F84CEA080CC6F800C0A9
:10262000C46824EA0204C46003F1010331FA03F22E
:1026300088D1BDE8F083000000000140000801409F
:10264000000C014000100140001401400004014052
:102650002DE9F84FDFF8B8910024A9F1040B2346C7
:102660000F2709F1040AABF1040EC9E00125A540CA
:102670002A40AA427DD1674ED1F804C0ACEB0608CF
:10268000B44532D014DCBCF1030F3AD009DCBCF104
:10269000000F2AD0BCF1010F1CD0BCF1020F31D1C8
:1026A0001DE0BCF1110F17D0BCF1120F2AD119E0B7
:1026B000B8F5881F19D006DCB8F5803F15D0B8F5FD
:1026C000801F1FD111E0B8F5001F0ED0B8F5041F10
:1026D00018D10AE0CB6815E0CB681B1D12E0CB686F
:1026E00008330FE0CB680C330CE08B682BB1012B67
:1026F0004FF0080303D0456104E0042302E00561C4
:1027000000E00023FF2A01D8064601E000F104069C
:102710004FEA840501D9A5F12005D6F8008007FA13
:1027200005FC28EA0C0803FA05F548EA0508C6F88E
:1027300000804D68ED0062D5374DAE6946F0010668
:10274000AE61AD6924F0030605F001050095334D37
:1027500006EB050CDCF80850A607360F07FA06F85A
:1027600025EA0805DFF8B880404503D14FF000089E
:1027700017E044E0DFF8AC80404502D14FF001089B
:102780000FE0DFF8A480404502D14FF0020808E0D6
:10279000DFF89880404502D14FF0030801E04FF088
:1027A000040808FA06F848EA0508CCF808804D68DD
:1027B000D9F80060ED024D4601D5164300E096437E
:1027C0002E604D68DAF80060AD02554601D516431B
:1027D00000E096432E604D68DBF80060AD035D4677
:1027E00001D5164300E096432E604D68DEF8006088
:1027F000ED03754601D5164300E096432E60641C38
:102800000D682A46E5407FF431AFBDE8F88F00003F
:1028100008040140000011100010024000000140B7
:1028200000080140000C014000100140001401406C
:102830008068084000D0012070470AB101617047EC
:102840000904FBE70148806870470000F0000020A1
:1028500010B5040013D0242084F83D0020680168DE
:1028600021F001010160204600F096FA002020646A
:1028700084F83D0044F8300FA073207310BD012090
:1028800010BD000070B5040025D094F83D0000256F
:1028900020B984F83C50204600F0AAFA242084F89D
:1028A0003D002068016821F0010101602068016895
:1028B00041F4004101602068016821F40041016099
:1028C00000F0E6FC4D4A6168914201D84C4900E0B5
:1028D0004C49884201D2012070BD4B492368B0FBAE
:1028E000F1F15E6826F03F060E435E606368934236
:1028F00006D94FF4967359434FF47A73B1FBF3F151
:102900002368491C1E6A26F03F063143196261683C
:10291000914210D84900401EB0FBF1F2521CC2F3A4
:102920000B02042A01D2042022E0B0FBF1F0401C8B
:10293000C0F30B001CE0A268F2B301EBC10303EB90
:102940000116431EB3FBF6F35B1C43F480431B05E7
:1029500049D092B301EBC10202EB0111401EB0FB62
:10296000F1F0401CC0F30B0040F4804040F4004004
:102970002168CA694CF6FF739A431043C861D4E9D1
:10298000071001432068026822F0C0021143016071
:10299000D4E9030101432068826848F2FF339A4377
:1029A00011438160D4E9050108432168CA6822F017
:1029B000FF021043C86001E00EE016E020680168E5
:1029C00041F0010101602564202084F83D00256369
:1029D00084F83E50002070BD01EB4106431EB3FB5E
:1029E000F6F35B1CB3E70120C2E701EB4101401E97
:1029F000B0FBF1F0401CC0F30B00B7E7A08601006C
:102A000080841E0000093D0040420F002DE9FF4F69
:102A100083B00025DDE910799A4693460446DDF837
:102A200048800095FFF70EFF064694F83D002028E9
:102A30007CD11923012288492046009601F06EFBC3
:102A40000028F5D194F83C0001286FD0012084F8CB
:102A50003C0020680168C90703D1016841F0010109
:102A600001602068016821F400610160222084F87F
:102A70003D00402084F83E0025646762A4F82A9057
:102A8000608D20857548E062CDE9008653465A4640
:102A90002046049901F0EAF900287CD1208DDFF866
:102AA000C091202768B1012814D00228206801684D
:102AB0001ED041F480610160206841698069009006
:102AC000BCE02068416981690091016841F40071AE
:102AD0000160B3E02068016821F48061016072B692
:102AE0002068416981690091016841F400710AE040
:102AF00041F40061016072B620684169816900910A
:102B0000016821F48061016062B697E0032865D80E
:102B100001280CD0022843464FF0000249462046C7
:102B200000960BD001F0FAFAA8BB0CE091E0324617
:102B30004146204601F098FB68BB72E001F0EEFAD6
:102B400048BB72B633E02068016821F480610160FF
:102B500072B620680069616A0870606A401C606231
:102B6000208D401E2085608D401E60853D4846F2C8
:102B7000A8110068B0FBF1F0C0EBC00000EB8000D2
:102B80000090401E009007D020684069C043400775
:102B90000DD50098F5E727E044F8305F6773A5731B
:102BA000206940F02000206162B625731CE0206897
:102BB000016841F40071016020680069616A087071
:102BC000606A401C6062218D491E2185618D491E0D
:102BD000618562B621680969017026E03246414686
:102BE000204601F041FB18B1012007B0BDE8F08F8D
:102BF00020680069616A0870606A401C6062208D0C
:102C0000401E81B22185608D401E6085206842692A
:102C1000D243520712D4032903D1016821F4806101
:102C2000016020680069616A0870606A401C606227
:102C3000208D401E2085608D401E6085208D0028DF
:102C40007FF464AF84F83D7084F83E5084F83C50C3
:102C5000CBE70220C9E70000020010000000FFFFE0
:102C600004000100FC0000202DE9FF4F83B09A46CC
:102C7000DDE9119793460446DDF84080FFF7E2FD59
:102C8000054694F83D0020287FD1192301224049B0
:102C90002046009501F042FA002876D194F83C00D5
:102CA000012872D0012084F83C0020680168C9071F
:102CB00003D1016841F0010101602068016821F43D
:102CC00000610160212084F83D00402084F83E002E
:102CD00000262664C4F82480A4F82A90608D2085FC
:102CE0002C48E062CDE9007553465A4620460499C7
:102CF00001F03AF970B930E02A463946204601F031
:102D0000EBFA58B1206C042804D12068016841F422
:102D100000710160012007B0BDE8F08F606A216892
:102D200000780861606A401C6062218D491E89B28A
:102D30002185628D521E628522685369DB435B07E1
:102D40000BD469B100781061606A401C6062208D0C
:102D5000401E2085608D401E6085208D0028CBD1CF
:102D60002A463946204601F0ADF90028CAD154F868
:102D70003D0B016841F400710160202004F81E0938
:102D8000E67766770020C6E7FFE70220C3E700008A
:102D9000020010000000FFFF10B50068104A114942
:102DA000114C904209D1C86920F40010C8618915FE
:102DB0002046FFF7C1FB61150CE00C4A90420ED192
:102DC000C86920F48000C86111152046FFF7B4FBE4
:102DD0004FF400612046BDE81040FFF7ADBB10BDC9
:102DE0000054004000100240000C01400058004018
:102DF00030B585B000210091019102910391214DE0
:102E00000368214C122103222048AB421DD1A36943
:102E100043F00803A361A369039203F0080304933A
:102E20001302CDE900316946FFF712FC18484168EA
:102E300041F0E06141F002014160E06940F40010BE
:102E4000E061E06900F4001019E0124DAB4217D1C7
:102E5000A36943F00803A361A369039203F0080385
:102E600004934FF44063CDE900316946FFF7F0FB6E
:102E7000E06940F48000E061E06900F480000490C3
:102E800005B030BD0054004000100240000C01406D
:102E90000000014000580040024881680278114457
:102EA00081607047F0000020074810B5016841F0CC
:102EB00010010160032000F075F80F2000F006F803
:102EC00000F024F8002010BD0020024070B50D4D28
:102ED00004464FF47A712878B1FBF0F00A4909688A
:102EE000B1FBF0F000F077FD48B9102C07D20022BA
:102EF0002146501E00F036F800206C6070BD0120A5
:102F000070BD0000F0000020FC0000200C4808B557
:102F1000816941F001018161816901F00101009144
:102F2000C16941F08051C161C06900F080500090DA
:102F30000448416821F0E06141F00071416008BD42
:102F40000010024000000140002809DB00F01F02D1
:102F5000012191404009800000F1E020C0F80011FB
:102F600070470000F0B40E4B1B680C46C3F30223FD
:102F7000C3F10705042D00D90425191D072901D225
:102F8000002300E0DB1E012606FA05F1491E214060
:102F900099409E40761E16403143F0BC03F038BD88
:102FA0000CED00E0064900F0070208684FF6FF0349
:102FB000184040EA0220034A1043086070470000AE
:102FC0000CED00E00000FA0501490120086270479D
:102FD00000000E4210B501460020234C012922D0EA
:102FE000022939D010291DD161682268D20119D572
:102FF0001E48C1F38342C903805C0AD561681B4A3D
:10300000C1F34041921E515C194AB2FBF1F14843B1
:1030100001E0184948436168490203D44000032194
:10302000B0FBF1F010BD226AC2F30121012903D1E6
:10303000920701D5C80310BD022905D1626A920723
:1030400002D549F6404010BD0329FCD1216889030F
:10305000F9D54FF2244010BD00F02AF96168C1F3A0
:103060008131491C4900DBE70010024090CE000886
:1030700000127A0000093D002DE9F843054600786A
:10308000354CC00754D0E0690026C00008D4E06980
:1030900040F08050E061E069012600F0805000902F
:1030A0002E480168C90512D40168804641F4807138
:1030B0000160FFF7C7FB074605E000BFFFF7C2FB53
:1030C000C01B642823D8D8F80000C005F6D5206AB4
:1030D00010F4407021D0A98801F4407181421CD0C5
:1030E000206A1F49012220F440700A6000220A6011
:1030F0002062C00711D0FFF7A5FB074641F28838D0
:1031000008E000BFFFF79EFBC11B414502D9032029
:10311000BDE8F883206A8007F4D5206A696820F446
:103120004070084320621EB1E06920F08050E061E9
:103130002878800705D56068A96820F440400843D6
:1031400060602878C00605D56068E96820F48000D2
:10315000084360600020DBE7001002400070004080
:10316000400442422DE9F0470F46050061D0434E2E
:10317000306800F00700B84209D2306820F007003C
:1031800038433060306800F00700B84251D12868F9
:103190003B4C810712D5400703D5606840F4E060DE
:1031A00060602878000703D5606840F46050606074
:1031B0006068A96820F0F000084360602878C007C4
:1031C00028D06868012810D02168022810D089070B
:1031D00000292EDA616821F0030101436160FFF7E5
:1031E00031FB804641F288390DE021688903EFE721
:1031F0008901EDE7FFF726FBA0EB0801494502D95D
:103200000320BDE8F0876068696800F00C00B0EB4F
:10321000810FEFD1306800F00700B8420BD9306859
:1032200020F0070038433060306800F00700B842F3
:1032300001D00120E5E72878400705D56068E968F6
:1032400020F4E060084360602878000706D56068D5
:10325000296920F4605040EAC100606000F038F84D
:103260006168084AC1F30311515CC840064908600F
:1032700006480068FFF72AFE0020C2E7002002404F
:1032800000100240A0CE0008FC000020F400002046
:103290000448054900684968044AC1F30221515CA9
:1032A000C8407047FC00002000100240B0CE00086B
:1032B0000448054900684968044AC1F3C221515CC9
:1032C000C8407047FC00002000100240B0CE00084B
:1032D0000E4A51680E4801F00C03042B11D0082B44
:1032E0000FD10C48C1F38343C903C05C0AD55168B0
:1032F000084AC1F34041921E515C054A5043B0FB5D
:10330000F1F0704704494843704700000010024044
:1033100000127A007ECE000800093D002DE9F84F2A
:10332000040070D02078C04DC00749D06868C0F351
:103330008100012807D06868C0F38100022809D104
:103340006868C00306D52868800339D560680028FE
:10335000E7D035E06068B0F5803F0BD010B1B0F534
:10336000A02F11D0286820F480302860286820F42D
:10337000802002E0286840F480302860606890B1C6
:10338000FFF760FA06460AE0286840F480202860CB
:10339000F0E700BFFFF756FA801B642873D828684F
:1033A0008003F7D50CE0FFF74DFA064605E000BFB5
:1033B000FFF748FA801B6428F0D828688003F7D408
:1033C00020789A4E80074FF001094FF0000839D558
:1033D000686810F00C0F07D06868C0F381000228FD
:1033E00009D16868C00306D42868800714D520690D
:1033F000012808D110E02069B0B1C6F80090FFF7AD
:1034000021FA074605E00AE1FFF71CFAC01B022873
:10341000C4D828688007F7D52868616920F0F800CB
:1034200040EAC10028600DE0C6F80080FFF70AFA04
:10343000074604E0FFF706FAC01B022823D82868D5
:103440008007F7D4207800072CD57948A169D9B135
:10345000C0F80090FFF7F6F9074604E0FFF7F2F92D
:10346000C01B02280FD8686A8007F7D571484FF44F
:10347000FA510068B0FBF1F0009000BF0098411EC7
:103480000091FAD20EE080E0C0F80080FFF7DAF990
:10349000074604E0FFF7D6F9C01B022875D8686A12
:1034A0008007F7D42078400760D5E8690027C0007E
:1034B00008D4E86940F08050E861E869012700F02D
:1034C000805000905C480168C90513D401688346A8
:1034D00041F480710160FFF7B5F9824606E000BF54
:1034E000FFF7B0F9A0EB0A0064284ED8DBF8000023
:1034F000C005F5D5E06801280AD008B1052813D029
:10350000286A20F001002862286A20F0040002E006
:10351000286A40F001002862E06841F2883B98B1D7
:10352000FFF790F982460BE0286A40F00400286219
:10353000EEE700BFFFF786F9A0EB0A0159455AD81C
:10354000286A8007F6D50CE0FFF77CF9824605E093
:10355000FFF778F9A0EB0A0159454CD8286A800793
:10356000F6D41FB1E86920F08050E861E06988B3C3
:103570006968C1F38101022944D00228C6F860803D
:1035800004D0FFF75FF9044638E034E0FFF75AF95A
:10359000074604E0FFF756F9C01B02282BD828681D
:1035A0008001F7D4206AB0F5803F05D16868A16832
:1035B00020F4003008436860D4E9080108436968D2
:1035C00021F4741108436860C6F86090FFF73AF977
:1035D000044606E025E000BFFFF734F9001B02288F
:1035E00009D828688001F7D51BE000BFFFF72AF94A
:1035F000001B022802D90320BDE8F88F286880014B
:10360000F4D40EE00128F7D06868226A00F4803113
:10361000914204D1616A00F47010884201D0012007
:10362000EAE70020E8E70000001002400000424204
:1036300080044242FC00002000700040F8B5050004
:103640004FF0000016460C46009006D02CB1002228
:103650006946284600F019F808B10120F8BD287B1A
:103660002070E87BE070697B6170A97BA17056B126
:1036700002F0E3FAE070607802F0DFFA6070A078A0
:1036800002F0DBFAA0700020F8BD2DE9F04791466A
:103690000C465FEA00084AD084B3D8F800004068BE
:1036A000400744D4404602F067FB4FF46162054690
:1036B000B0FBF2F1B0FBF2F302FB13503C23B0FB82
:1036C000F3F0B5FBF2F6607002FB1650B0FBF3F2BC
:1036D00003FB1200A070182931D31820B1FBF0F7BA
:1036E000B1FBF0F200FB12102070404602F03DFBEF
:1036F000411C04D0A84202D9461B02E017E04FF05B
:10370000FF36A7EB071000EB4000C0EB001005EB05
:10371000C0152946404602F07EFB40B9701C01D01E
:10372000711900E03146404602F061FB10B1012002
:10373000BDE8F0873946404602F08AFA00E0217081
:10374000B9F1000F0BD0207802F077FA2070607882
:1037500002F073FA6070A07802F06FFAA070002097
:10376000E6E7000070B5040003D0607C002610B1CD
:1037700005E0012070BD2674204600F03DF80220CF
:103780006074204600F00AF9042550BB204602F080
:10379000B6FA30BB2068416821F007014160A0689B
:1037A00020B11448016821F0010101601148001F97
:1037B0000168A26821F46071114301606068411CD6
:1037C00004D10120FFF706FC58B1401E2268C0F367
:1037D00003419160216880B2C860204602F0AAFAD5
:1037E00008B16574C5E7E67301206073A073607467
:1037F000002070BD306C004008B500680849884260
:103800000DD1FFF7E1FB0748C16941F00061C161DB
:10381000C069054900F0006000900120086008BD03
:1038200000280040001002403C0442422DE9F041D3
:103830000D4604003BD0C5B3207C01283AD04FF0A0
:10384000010884F8108002206074E87872B302F0F6
:10385000EBF9E073687802F0E7F96073A87802F09A
:10386000E3F9A073C2B2617BE07B02F095FA2073AA
:103870002870204602F080FA4FF46161B0FBF1F14C
:10388000002518292DD91822B1FBF2F1A1EB011165
:1038900001EB4101C1EB011100EBC116314620469D
:1038A00002F0B9FA0427C8B90BE000E004E00120F7
:1038B000BDE8F0810220FBE7E07368786073A878C8
:1038C000CFE7204602F051FA411C0AD0B04208D29C
:1038D00006490144204602F08AFA10B16774257443
:1038E000E5E784F8118025740020E1E780510100AC
:1038F0002DE9F0410D46040024D01DB3207C0128A1
:1039000023D04FF0010884F81080022060742878DA
:10391000EAB102F089F94FF4616100FB01F66878C1
:1039200002F082F9C0EB001006EB8006A87802F0E6
:103930007BF935182946204602F06DFA0026042747
:1039400010BB0FE00120BDE8F0810220FBE74FF43F
:10395000616148436978C1EB011100EB8100A978EE
:103960004518E7E72068416821F0050141602046DD
:1039700002F0FBF9411C0AD0A84208D206490144D2
:10398000204602F034FA10B167742674DAE784F83E
:10399000118026740020D6E78051010070B5040024
:1039A0000AD02068416821F008014160FEF74AFF13
:1039B00005464FF47A7608E0012070BDFEF742FF1D
:1039C000401BB04201D9032070BD20684068000749
:1039D000F4D5002070BD10B5401EB0F1807F01D33A
:1039E000012010BD4FF0E02460610F21601703F04B
:1039F0000FF80020A06107202061002010BD704753
:103A00007047000070B590F83C20012A26D00124B0
:103A100080F83C40022280F83D2003685A689D6887
:103A200022F070060A6832435A600D4B02689A42CF
:103A300008D0B2F1804F05D00A4B9A4202D00A4B0F
:103A40009A4204D1496825F080031943916080F8B7
:103A50003D40002180F83C10084670BD022070BD3A
:103A6000002C0140000400400008004010B5040094
:103A700003D094F83D0010B107E0012010BD0020F4
:103A800084F83C00204600F01FF8022084F83D0036
:103A9000211D206802F0F8FD012084F8460084F81A
:103AA0003E0084F83F0084F8400084F8410084F828
:103AB000420084F8430084F8440084F8450084F808
:103AC0003D00002010BD000008B50068B0F1804F37
:103AD00012D10A48C16941F00101C161C0690022E7
:103AE00000F00100009005211C20FFF73BFABDE823
:103AF00008401C20FFF728BA08BD00000010024053
:103B000090F83D10012901D001207047022180F872
:103B10003D100168CA6842F00102CA6000680B49A2
:103B2000884208D0B0F1804F05D00949884202D0C0
:103B30000849884204D1816801F00701062903D0B1
:103B4000016841F00101016000207047002C014034
:103B5000000400400008004070B5044690F83C00A6
:103B60000025012817D0012684F83C60022084F843
:103B70003D002068826822F0770222F47F42826052
:103B80000868502838D00DDC20284FD005DC90B3D1
:103B9000102811D14AE0022070BD302846D04028BC
:103BA0000AD13BE060282FD070280DD0B0F5805F9F
:103BB00003D0B0F5005F12D0012584F83D600020ED
:103BC00084F83C00284670BDCB68D1E9012120680B
:103BD00002F096FD2068816841F0770109E0CB682A
:103BE000D1E90121206802F08BFD2068816841F451
:103BF00080418160E1E719E0CA684968206802F005
:103C000091FD5021206806E0CA684968206802F0EA
:103C10009AFD6021206802F07DFDCEE7CA68496800
:103C2000206802F07FFD40212068F4E72268014609
:103C30001046F0E770472DE9F04104460068C66879
:103C400005694FF00007A90713D5B10711D5F91E73
:103C5000016101202077206880698007204602D01A
:103C6000FFF7E8FF04E000F07EF8204600F07CF863
:103C70002777680716D5700714D521686FF0040000
:103C80000861022020772068806910F4407F204678
:103C900002D0FFF7CFFF04E000F065F8204600F007
:103CA00063F82777280715D5300713D521686FF0FB
:103CB00008000861042020772068C069800720463A
:103CC00002D0FFF7B7FF04E000F04DF8204600F007
:103CD0004BF82777E80616D5F00614D521686FF063
:103CE00010000861082020772068C06910F4407F28
:103CF000204602D0FFF79EFF04E000F034F8204693
:103D000000F032F82777E80708D0F00706D02168DE
:103D10006FF001000861204600F027F8280608D55A
:103D2000300606D521686FF0800008612046FFF755
:103D300066FE680608D5700606D521686FF040005B
:103D40000861204600F01FF8A8060AD5B00608D57D
:103D500021686FF0200008612046BDE8F041FFF7C0
:103D60004FBEBDE8F0817047704710B50068B0F1F4
:103D7000804F07D102F00CFC00F0E2FBBDE81040E0
:103D8000FEF738B910BD7047FEE700007FB54FF46D
:103D90004060009011200190012002900320174DF7
:103DA000039069462846FEF753FC00242E15012295
:103DB00031462846FEF741FD012003F029FC002290
:103DC00031462846FEF739FD012003F021FC641C32
:103DD000092CECDB012231462846FEF72EFD01229C
:103DE000D1022846FEF729FD012003F011FC04480A
:103DF000FEF72EFD0248FEF745FD7FBD000C014099
:103E00000406002001684A69D24352050FD46FF4BA
:103E100080624A61002140F8301F20224273817382
:103E2000026942F004020261017301207047002020
:103E30007047000070B501220B4D54022146284600
:103E4000FEF7FBFC0122160231462846FEF7F5FC80
:103E500021462846FEF7ECFC04460022314628465F
:103E6000FEF7EBFC204670BD000C01402DE9F84F39
:103E70000446006889460B9D01689846174641F440
:103E8000806101602068016841F4807101600095E3
:103E90004FF0011B0022594620460A9B00F03EF9D4
:103EA0004FF4007A40B120680068C00501D5C4F81D
:103EB00040A00320BDE8F88F216809F0FE000861EA
:103EC0002B46284920460A9A00F070F9F0BB20687A
:103ED0004169806900902A4620460A9900F0FCF961
:103EE00040B1206C04283AD12068016841F4007187
:103EF000016034E0FEB2B8F1010F09D02168380A40
:103F000008612A4620460A9900F0E6F90028E8D11F
:103F1000206806612A4620460A9900F0DDF900284B
:103F2000DFD12068016841F48071016000950022B2
:103F3000594620460A9B00F0F1F80028B3D12168C9
:103F400009F0FF0040F00100086100E007E02B46A7
:103F5000044920460A9A00F029F90028AAD0012035
:103F6000A8E70000020001002DE9F84304460068BC
:103F70000D46DDE9089701689846164641F48071C0
:103F800001604B4600224FF001112046009700F0DF
:103F9000C5F848B120680068C00502D54FF400702C
:103FA00020640320BDE8F883216805F0FE00086165
:103FB0003B464A461549204600F0F8F888B9206883
:103FC0004169806900903A464946204600F084F9EC
:103FD00048B1206C042804D12068016841F40071C4
:103FE00001600120DEE7F5B2B8F1010F09D02168C8
:103FF000300A08613A464946204600F06DF900282B
:10400000E7D1206805610020CCE700000200010034
:104010002DE9F041104F002405464FF40078BE15FD
:10402000280601D5012200E0002241463846FEF76D
:1040300004FC012231463846FEF7FFFB00223146E0
:104040003846FEF7FAFB6806641C050EE4B2082C3D
:10405000E6D3BDE8F0810000000C014070B50122FC
:104060000B4D540221462846FEF7E7FB01221602BB
:1040700031462846FEF7E1FB002221462846FEF79E
:10408000DCFB31462846BDE870400022FEF7D5BB78
:10409000000C014070B50A4D4FF400740022214617
:1040A0002846FEF7CAFB012211022846FEF7C5FB8F
:1040B00021462846BDE870400122FEF7BEBB000045
:1040C000000C014070B516460D4604461EE0204621
:1040D000FFF798FE08B1012070BD681C16D0FEF7EE
:1040E000B1FB801BA84200D885B920684069C04355
:1040F00040070BD5002044F8300F20216173A073D6
:10410000216941F0200121612073E4E720684069C2
:10411000C0434007DBD4002070BD00002DE9F0470C
:10412000984617460D460446C1F30746DDF8209031
:104130002AE000BFB8F1FF3F26D0FEF783FBA0EBDB
:104140000901414502D8B8F1000F1DD12068012EA8
:1041500016D0806925EA00000004000C12D000206F
:10416000B84211D1002044F8300F20216173A073B0
:10417000216941F02001216120730120BDE8F08711
:104180004069E7E70120EBE72068012E0AD080694B
:1041900025EA00000004000C06D00020B842C9D077
:1041A0000020EBE74069F3E70120F7E72DE9F0474E
:1041B000984616460D4604464FF000094FF0200A77
:1041C000C1F3074723E020684069C043400515D488
:1041D0002068016841F40071016021686FF480601B
:1041E0004861C4F8309084F83DA084F83E90216C7A
:1041F00041F00401216484F83C9021E0701C06D059
:10420000FEF720FBA0EB0800B04203D816B1012F47
:104210001FD021E02068012F15D0806925EA000019
:104220000004000C18D000BF44F8309F84F80DA0A3
:1042300084F80E90216941F02001216184F80C90EE
:104240000120BDE8F087406925EA00000004000C69
:10425000EAD12068406901E02068806925EA000011
:104260000004000CAFD1ECE72DE9F04100259046A9
:104270000E460446202728E04069C043C0060CD4FF
:1042800054F8301B6FF01000486144F810596777FC
:10429000A577206A2062257714E0FEF7D3FAA0EB19
:1042A0000800B04200D886B920684069C043400683
:1042B0000BD544F8305F6773A573206940F0200088
:1042C000206125730120BDE8F08120684169C94360
:1042D0004906D1D40020F6E770B516460D460446CF
:1042E0001EE02046FFF78EFD08B1012070BD681C5E
:1042F00016D0FEF7A7FA801BA84200D885B920681F
:104300004069C04300060BD5002044F8300F20213F
:104310006173A073216941F0200121612073E4E7FA
:1043200020684069C0430006DBD4002070BD000057
:104330002DE9F04F4FF0000A89B03B4CD14655466D
:1043400056460DF11C0B02A9CDE9001B06AB04AAD1
:1043500005A903A800F022FAF0BBBDF9080006F099
:1043600069FA0746BDF90C00404206F063FA394687
:1043700002F08CFE2D4906F089FA06F0E9F8D4E93E
:10438000182305F0D5FC07468846504606F0E0F8AD
:1043900043463A4605F010FC05F0DCFB8246BDF9C9
:1043A000080006F047FA0746BDF9100006F042FA89
:1043B000394602F06BFE1D4906F068FA06F0C8F8AF
:1043C000D4E9182305F0B4FC07468846484606F0B1
:1043D000BFF83A46434600E006E005F0EDFB05F085
:1043E000B9FB6D1C8146EDB2022003F011F9761C79
:1043F000052EA8DB002675B1284606F033FA0546DF
:104400002946504606F038F9A0642946484606F089
:1044100033F9606401E0A66466640120E6642070FC
:1044200009B0BDE8F08F00005800002000003443C0
:10443000F8B5002517488DF800502B462A466946E6
:10444000006803F021F9144805709DF80000F0B1F0
:104450001249134C42F210760A788AB1032803D02D
:10446000042801D00020F8BD0D70AF2001F09CFBA6
:10447000206803F076FB3146206803F059FBF1E732
:10448000206803F06EFB3146206803F051FB9DF875
:104490000000F8BDC400002008000020C00000207B
:1044A000DC00002008490020074A48700146121D20
:1044B00001EB4103491C02F8230002EB83030329AB
:1044C00058705880F4DB70470800002010B504468F
:1044D00001894068FEF7ACF950B100212278002034
:1044E00042B1012A0BD0022A14D0032A10D122E0B3
:1044F0000121F3E700290CD06070012008E039B1F8
:104500006178491CC9B26170032902D3608002201E
:10451000207010BD094A59B16088401C81B2618089
:10452000E07A0028F5D05029F3D350700320EFE74C
:10453000A17A5170ECE70029EAD010BD08000020F4
:1045400070B50D4E0024351F04EB440006EB8000CF
:10455000FFF7BCFF687858B1287008480649002367
:104560001A46C91E006803F0EDF80020687070BD9F
:10457000641C032CE8DB70BD0C000020C40000208C
:1045800008B50B481023002100901A46084601F098
:1045900007FA082307A21021002001F083FA01B0D6
:1045A0000823202105A200205DF804EB01F07ABA6F
:1045B00006C600084C4544204F4E00004C454420A0
:1045C0004F4646002DE9FC41554C207808B9FFF7CD
:1045D000AFFE53491831881FCDE90001031D821E2B
:1045E000811C001F00F0DAF800287CD1B4F9140017
:1045F00006F020F94B4D294606F03EF80746B4F97F
:10460000160006F017F9294606F036F80646B4F902
:10461000180006F00FF9294606F02EF8616A0546E3
:104620008846384606F032F9616C05F0BDFF20631C
:104630004146304606F02AF9A16C05F0B5FF6063EB
:104640004146284606F022F9E16C05F0ADFFA06373
:10465000B4F9120006F0EEF80546B4F90E0006F0C3
:10466000E9F880F00040294602F010FD2E4E314658
:1046700006F00CF905F06CFFD4E9182305F058FB9F
:1046800005F068FA2064B4F9120006F0D3F8054684
:10469000B4F9100006F0CEF8294602F0F7FC3146D6
:1046A00006F0F4F805F054FFD4E9182305F040FBB8
:1046B00005F050FAE063216A06460F464FF07E503F
:1046C00006F0BAF90546314606F0E0F806463846E7
:1046D000216B06F0DBF8314605F066FF60640646A4
:1046E0002846216C00E018E006F0D0F80546384670
:1046F000616B06F0CBF8294605F056FFA064A06B6D
:10470000E064304602F0F0FD6064A06C02F0ECFD65
:10471000A064E06C02F0E8FDE064BDE8FC8100000C
:104720005800002033338341000034432DE9FE4319
:1047300000273E46B8463C463D466946432000F0C9
:10474000A3F8B8B901A9452000F09EF890B902A9D4
:10475000472000F099F868B9BDF90000BDF90810CC
:104760000744BDF90400641C06448844E4B20220F6
:1047700002F04EFF6D1CEDB2142DDED3002C09D0DB
:1047800097FBF4F00449488096FBF4F0888098FB8E
:10479000F4F0C880BDE8FE83000000202DE9F0475A
:1047A0001E4C0F46DDE9089621781D46904691B3D0
:1047B00001463B2000F068F800282AD13946432002
:1047C00000F062F8002824D141463D2000F05CF85A
:1047D00000281ED12946452000F056F8002818D19F
:1047E00049463F2000F050F8002812D131464720BA
:1047F00000F04AF800280CD138886188401A3880C7
:104800002888A188401A28803088E188401A3080A2
:104810000020BDE8F087FFE70120FAE70000002054
:1048200010B500F0DFF801216B2000F059F80028E6
:1048300026D100216C2000F053F8002820D104215B
:10484000192000F04DF800281AD106211A2000F096
:1048500047F8002814D118211B2000F041F8002847
:104860000ED118211C2000F03BF8002808D164204C
:1048700002F0CEFEFFF75AFF024901200870002027
:1048800010BD0000000000207CB50D4604466946BE
:1048900000F012F800280ED1641CA0B201A900F0AB
:1048A0000BF8002807D19DF804009DF8001040EA9D
:1048B0000120288000207CBD3EB501231422CDE9D3
:1048C000001302920246D0210448FEF79FF804002C
:1048D00001D0FFF75BFA20463EBD00000406002031
:1048E00013B584B01423012205A98DE80E001346E8
:1048F0000246D0210448FEF7B7F9040001D0FFF7C3
:1049000045FA06B0204610BD040600203EB500243E
:1049100011480094019402940E498460016004736C
:104920000475012505614FF460214460C161FDF704
:10493000CFFC08B1FDF7BEFB05200094CDE9015086
:1049400069460548FDF742FC002801D0FDF7B2FB9F
:104950003EBD0000002401408005002010B500206D
:1049600002F04DFF194CA060002002F048FF002229
:10497000E0601146012002F0C5FF002220611146CF
:10498000012002F0BFFF002260611146012002F009
:10499000B9FF0023A0611A4619460D4803F08CF8B0
:1049A000E0610C4A00210C4803F026F8094A206215
:1049B00024320021094803F01FF8064A6062483299
:1049C0000021074803F018F8A06210BDC0000020C5
:1049D000155C0008ECCD0008C964000855650008A6
:1049E00029640008F0B585B0002628480096019695
:1049F00002960396816941F020018161816901F08D
:104A000020010491816941F004018161816901F013
:104A100004010491816941F00801816180691C4FA2
:104A200000F00800049000224FF486513846FDF74C
:104A300004FF01224FF420413846FDF7FEFE5020CE
:104A4000CDE900060124694602941248FDF700FEF4
:104A500002250095CDE9016469463846FDF7F8FD69
:104A60004FF482508DE83100694638460395FDF7D2
:104A7000EFFD4AF28000CDE9000469463846CDE9F1
:104A80000245FDF7E5FD05B0F0BD00000010024055
:104A9000000C0140000801400D4810B50B490160B1
:104AA0000C49416000214FF480428160C0E903124B
:104AB00041618161C1610162FDF7E4FE002803D01C
:104AC000BDE81040FDF7F6BA10BD000000540040EC
:104AD000B0050020A08601000D4810B50B4901600B
:104AE0000C49416000214FF480428160C0E903120B
:104AF00041618161C1610162FDF7C4FE002803D0FC
:104B0000BDE81040FDF7D6BA10BD000000580040C7
:104B100004060020801A06001CB5002418480194E1
:104B2000164900940160611E41604FF480718160FC
:104B3000FEF718FE08B1FDF7BDFA8DF804408DF8B8
:104B400005408DF80640012201A90D48FEF7D0FE70
:104B500008B1FDF7AFFA01208DF800008DF80100D3
:104B60008DF8020002468DF8034069460448FEF7BE
:104B70005DFE002801D0FDF79DFA1CBD0028004015
:104B80005806002010B586B0002416480094019401
:104B90000294039404944FF080410594016041F61F
:104BA0001F41C0E90114C721C0E903148461FEF765
:104BB0005DFF08B1FDF77EFA4FF480500090694622
:104BC0000848FEF7C9FF08B1FDF774FA049404A978
:104BD00004480594FEF716FF002801D0FDF76AFA95
:104BE00006B010BD6C060020FEE700002DE9F04184
:104BF00000F00CF93C4E4FF001083A4FA6F11004BA
:104C0000FFF716FC3870012804D002280DD00328C5
:104C100017D044E086F8048020780125401E10F06B
:104C2000FF0020703BD1072009E086F8048021783E
:104C30000225491CC9B24046217008292FD3207093
:104C40002DE000F033FB00F09BFF207801280CD012
:104C500002280DD003280ED004280FD0052810D02C
:104C6000062811D0072812D019E00020BDE8F081F5
:104C700000F098FA0FE000F0B3F90CE000F01CFA35
:104C800009E000F019F906E000F0AEF803E000F0EA
:104C90007BF900F079F900F0B9F800F071FF2178A4
:104CA000012904D0012D0FD0022D10D016E0012DC6
:104CB00002D0022D04D011E00022307901210BE056
:104CC00000223079114607E0481EC2B203E0481EB8
:104CD000891EC2B2C9B2307901F0B2F80A2002F0DE
:104CE00097FC8DE70800002040000020F8B53A4E00
:104CF0004FF0FF31306802F059FD00F0D7FA374825
:104D00002C2300901A460A212A2000F049FE344C38
:104D10000021302220786378984209D2A378E57880
:104D2000A3EB050313F0FF03A3700DD1401C08E0B3
:104D30000AD9A378E5782B44DBB2A370602B03D1AA
:104D4000401E20702171A2702078264DC8B105EB5D
:104D5000C01080380090A07820231A4610213038E7
:104D600000F01EFE207802280BD305EBC010A0F542
:104D700080700090A07820231A461021603800F03F
:104D80000FFE2078202305EBC01080300090A07823
:104D90001A461021303000F003FE2078202305EB66
:104DA000C0100090A0781A46102100F0F9FD20787C
:104DB000202305EBC01000F580700090A0781A4603
:104DC0001021603000F0ECFD00F0DAFE3068BDE844
:104DD000F84002F048BD0000C800002026CA0008C4
:104DE0004000002026C6000810B5074C01F05AF913
:104DF000FFF71EFB20700328F8D100F057FABDE83A
:104E0000104000F0BDBE000008000020F8B5264CA0
:104E10000725264F2078B0FBF5F105FB1100207027
:104E20004FF0FF31386802F0C1FC00F03FFA204833
:104E30002C2300901A460A212A2000F0B1FD207888
:104E40001C4E801DB0FBF5F105FB110006EBC010F8
:104E5000202300901A461021002000F0A1FD2078A8
:104E60002023C01DB0FBF5F105FB110006EBC010BF
:104E700000901A461021302000F092FD2078202367
:104E80000830B0FBF5F105FB110006EBC0100090F7
:104E90001A461021602000F083FD00F071FE386892
:104EA000BDE8F84002F0DFBC40000020C800002050
:104EB00026CA000826C600082DE9F0412B4D2C4CCF
:104EC0002C4E4FF0FF3700BFFFF7B2FA28700128D1
:104ED00004D002280AD0032811D027E0E078401E31
:104EE00010F0FF00E07021D1022006E0E078401CC5
:104EF000C0B2E070032819D30120E07016E000F082
:104F0000D5F900F03DFEE07801282DD002280DD122
:104F1000FDF7C4F8184A0021184802F06DFD184941
:104F2000086018483946006802F0BEFC394630680F
:104F300002F03CFCE078012802D0022810D105E004
:104F4000FDF712F910231A46002104E0FDF70CF9D1
:104F5000102350221946002000F0B6FC00F010FE8D
:104F6000306802F080FCAFE7BDE8F0810800002067
:104F700058000020C800002058CE00083565000801
:104F8000EC000020D80000202DE9F041114D124F17
:104F9000124C4FF0FF3600BFFFF74AFA2870032883
:104FA00011D03146386802F07FFC3146206802F0AB
:104FB000FDFB00F07BF901F013F900F0E1FD206842
:104FC00002F051FCE8E700F071F9BDE8F04100F0B3
:104FD000D7BD000008000020D0000020C80000203D
:104FE0002DE9F041FFF7CCFA2F4DDFF8C080304CAF
:104FF000304E4FF4004700BFFFF71AFA287001281F
:1050000004D002280AD0032811D023E02079401EC2
:1050100010F0FF0020711DD1032006E02079401C14
:10502000C0B22071042815D30120207112E000F0D5
:105030003DF900F0A5FD2079012832D0022802D0E8
:10504000032802D006E0002200E001223946404653
:10505000FDF7F3FB4FF0FF31306802F0A7FB20793A
:10506000012804D0022808D0032810D113E0FFF74C
:1050700087FA10231A46002104E0FFF781FA102373
:1050800030221946002000F01FFC00F079FD306846
:1050900002F0E9FBB0E7FFF773FA10233822202172
:1050A000F0E7BDE8F081000008000020000C01409E
:1050B00058000020C80000207FB52C4DFFF7B8F93C
:1050C000287003284CD02A484FF0FF34214600684E
:1050D00002F0EAFB274E2146306802F067FB00F041
:1050E000E5F825481023002100901A46084600F0F4
:1050F00057FC102300211A46084600F0E5FB1F4C20
:10510000606C05F025FACDE902011DA00023009096
:1051100008221021184600F0AEFBA06C05F018FA2A
:10512000CDE9020119A00023009008222021184691
:1051300000F0A1FBE06C05F00BFACDE9020116A02E
:105140000023009008223021184600F094FB00F064
:1051500017FD306802F087FB052002F059FAADE731
:1051600000F0A4F8BDE87F4000F00ABD0800002070
:10517000D0000020C800002006C60008580000200B
:10518000526F6F6C3A20252E3266000050697463AE
:10519000683A252E326600005961773A2020252E84
:1051A000326600002DE9F04701F09EF800F0E8FCBF
:1051B000DFF8EC80394D3B4E01274FF00009A8F194
:1051C0002C0400BFFFF734F92870012804D002280E
:1051D0000BD0032811D02CE06078401E10F0FF00A7
:1051E000607026D10420607023E06078401CC0B25B
:1051F000607005281DD367701BE000F057F800F0C1
:10520000BFFC6078012846D0022804D0032805D0CE
:10521000042806D00DE088F803700AE088F80390AF
:1052200007E088F8039088F8009088F8019088F8E3
:1052300002904FF0FF31306802F0B8FA6078012830
:1052400006D002280BD0032817D0042811D11BE068
:1052500001F04AF8102300211A46084605E001F043
:1052600043F8102320222C21082000F02DFB00F011
:1052700087FC306802F0F7FAA4E701F035F8102354
:1052800020222C213020F0E701F02EF810232022DC
:105290002C215820E9E7BDE8F08700000800002035
:1052A00084000020C8000020FEE7000010B50021A7
:1052B000074C0A46002004EBC1131A54401CC0B22C
:1052C0008028FAD3491CC9B20829F3D310BD0000C5
:1052D00080010020F0B50B4424E0044685181DE051
:1052E0007F2C19D8002917DB3F2915DCCE1701EBDD
:1052F00056764FEAE60C0D4F26F0070607EBCC1763
:105300002744A1EB060E97F800C0012606FA0EF618
:105310002CEA060C87F800C0641C24B2A542DFDC2E
:10532000491C09B28B42D8DCF0BD0000800100208E
:105330002DE9FF4F804687B0C2F10100144603906B
:105340000D46081901B200264746404600F0EAF92A
:10535000281B01B2384600F0E5F908EB040000B262
:10536000294600F0DFF9A8EB040000B2294600F05E
:10537000D9F90A98002875D0674206E0E81901B209
:10538000404600F0CFF97F1C3FB2A742F6DB69E050
:10539000761C039836B2002802DA00EB460004E0DF
:1053A000641E24B2311B00EB4100401C00B203908C
:1053B000281901B208EB060000B28146029106905E
:1053C00000F0B0F9A81901B208EB040000B283465E
:1053D000059100F0A7F9281B01B2A8EB060000B266
:1053E0000F460190009000F09DF9A81B01B2A8EBB8
:1053F000040000B28246049100F094F93946484610
:1054000000F090F95846049900F08CF90299009840
:1054100000F088F95046059900F084F90A9808B31D
:10542000604207B20BE0E81901B28946069800F025
:1054300079F94946019800F075F97F1C3FB2A742FF
:10544000F1DB704207B20BE0E81901B28946504621
:1054500000F068F94946584600F064F97F1C3FB2F5
:10546000B742F1DBA64293DB0BB0BDE8F08F000042
:105470002DE9F04F91B080469946C9F100000E46E3
:10548000174600251C460D9004F007FE0022A44B91
:1054900004F092FB824607FB07FB5846079104F095
:1054A000FCFDCDE909015246079B04F05DFE07466D
:1054B00009FB09F082460C9104F0EFFDCDE90701EC
:1054C0003A460C9B04F078FB04F044FB04901A98D5
:1054D00078B10D9F0BE0F01901B240460C9100F03D
:1054E00021F940460C9900F01DF97F1C3FB2A742FC
:1054F000F1DB301901B208EB050000B2CDE90C0177
:1055000000F010F9301B01B2A8EB050007B23846D5
:105510000E9100F007F938460D9900F003F90E9945
:1055200052E004984FF00301B0F5000F01EB450184
:105530000AFB01F006DA05F07DF9049905F034F86C
:1055400004900DE06342022202EB43020BFB0200D7
:1055500005F070F9049905F027F8641E24B2049050
:105560000E9805B21A98C0B1604207B208EB050068
:1055700000B20F90A8EB050000B20E900BE0F019FE
:1055800001B20D910F9800F0CDF8DDE90D1000F09B
:10559000C9F87F1C3FB2A742F1DB301901B208EB1A
:1055A000050000B2CDE90C0100F0BCF8301B01B2DF
:1055B000A8EB050007B238460F9100F0B3F8384663
:1055C0000D9900F0AFF80F990C9800F0ABF8204659
:1055D00004F063FD0022524B04F0D0FE02460B465D
:1055E000DDE9090104F0C0FD0746681CCDE90D1096
:1055F00000FB0AF004F051FD3A460D9B04F078FDE3
:105600008FD30BFB09F000FB09F004F046FD0B9172
:105610000E90611E0BFB01F0484304F03EFDCDE906
:105620000910284604F039FD00223D4B04F0C4FA6D
:1056300002460B4607468946DDE9070104F094FD62
:105640003A464B4604F090FDDDE9093204F0B4FA25
:105650000B9B0E9A04F092FE04F07CFA814659E00E
:10566000B9F5000F13DA022101EB45016342032271
:105670000AFB01F002EB43020BFB020005F0DAF833
:10568000494604F091FF6D1C81462DB20BE0624249
:10569000032101EB42010BFB01F005F0CBF8494679
:1056A00004F082FF8146641E1A9824B2C0B16042A1
:1056B00007B208EB050000B20A90A8EB050000B2A3
:1056C00009900BE0F01901B208910A9800F02AF84D
:1056D000DDE9081000F026F87F1C3FB2A742F1DB9D
:1056E000301901B208EB050000B2CDE9071000F057
:1056F00019F8301B01B2A8EB050007B23846099132
:1057000000F010F83846079900F00CF8DDE90801C0
:1057100000F008F8002CA3DC11B0BDE8F08F000009
:105720000000E03F10B57F2813D8002911DB3F2986
:105730000FDCCA1701EB5272D410064B22F007029D
:1057400003EBC41318448A1A0378012191400B43D8
:10575000037010BD8001002070B586B000214FF4A9
:105760007A720020401C9042FCD3491C9142F8D32D
:105770001448816941F00801816180694FF48074A7
:1057800000F0080004901120CDE9004001200290B3
:1057900003200D4E039069463046FCF759FF650023
:1057A000694630460095FCF753FF012221463046FA
:1057B000FDF743F8012229463046FDF73EF806B0D2
:1057C00070BD000000100240000C014010B5FFF752
:1057D000C3FFAE2000F0E8F9D52000F0E5F9802005
:1057E00000F0E2F9A82000F0DFF93F2000F0DCF93A
:1057F000D32000F0D9F9002000F0D6F9402000F0C5
:10580000D3F9A12000F0D0F9C82000F0CDF9DA20BA
:1058100000F0CAF9122000F0C7F9812000F0C4F9A5
:10582000CF2000F0C1F9D92000F0BEF9F12000F03E
:10583000BBF9DB2000F0B8F9302000F0B5F9A42066
:1058400000F0B2F9A62000F0AFF98D2000F0ACF91D
:10585000142000F0A9F9AF2000F0A6F9FFF726FD0B
:10586000BDE8104000F08CB90246012000E0504332
:10587000491EFCD270472DE9F041ADF5007D1C4674
:1058800015460E46804687AB4FF4807140A8869A35
:10589000FAF778FD00274CB1FF2C07D8224640A923
:1058A0006846FAF73FFE0DF8047003E040A9684629
:1058B000FAF7A0FD2B466A463146404600F0F2F862
:1058C0000DF5007DBDE8F081F0B50B4423E0044602
:1058D00085181CE07F2C18D8002916DB3F2914DC22
:1058E000CE1701EB567C4FEAEC070C4E2CF0070C60
:1058F00006EBC7162644A1EB0C0E37784FF0010CCF
:105900000CFA0EFC87EA0C073770641C24B2A5421F
:10591000E0DC491C09B28B42D9DCF0BD80010020DB
:1059200010B5891CCCB240F0B00000F03DF9102059
:1059300040EA141000F038F904F00F00BDE8104000
:1059400000F032B908B5082B0ED0062B15D00C2B61
:105950001ED1104B02EBC20203EB8202A2F5906251
:10596000182300920C2211E00B4B03EB0212A2F55C
:10597000007210230092082208E0084B02EB42025A
:1059800003EB4202C03A00920823062200F008F816
:1059900008BD000090B4000866AC000856B20008CC
:1059A0002DE9F04F1F4616460D4682460024FFF7AC
:1059B00091FC7F1EF81707EB50700121DFF898B0BB
:1059C00001EBE00743E000203DE000BF0AEB0003ED
:1059D0007F2B36D8E91705EB5171CA1021F007016A
:1059E000691A002D03DA521E083112B209B202EB15
:1059F0000409B9F1070F0ED8099A04FB06F802440E
:105A00000BEBC91E18F802201EF803C08A404CEAAE
:105A1000020C0EF803C009F10102072A11D80BEBA2
:105A2000C91202EB0308099A04FB06FC024498F829
:105A300080301CF80220C1F10801CA40134388F8E5
:105A40008030401CC0B2B042C0D3641CE4B2A74254
:105A5000B9DCBDE8F08F0000800100202DE9F0479F
:105A600000241D4690468A4681460A27089E14E077
:105A7000291B0A20491EFFF7F7FEB8FBF0F0B0FB28
:105A8000F7F107FB110204FB069000B233465146C2
:105A90003032FFF757FF641CE4B2AC42E8D3BDE8F4
:105AA000F08700002DE9FF4F002583B09B4690460C
:105AB0002C46AA46DFF8C09056E010068DF8042068
:105AC00005F101050DD40398ADB220448DF805A071
:105AD00000B25B460499FFF735FF04EB0B0084B27C
